:020000022000DC
:1070000080A3002031CA020017EE04001DCA02004E
:107010001DCA02001DCA02001DCA020000000000B5
:107020000000000000000000000000004DCB020046
:107030001DCA020000000000B1CA02001DCA020001
:10704000E1CD0200D1F20300E1CD0200E1CD02006A
:10705000E1CD0200E1CD0200E1CD0200E1CD020070
:10706000E1CD0200E1CD0200E1CD0200E1CD020060
:10707000E1CD0200E1CD0200E1CD0200E1CD020050
:10708000E1CD0200E1CD0200E1CD0200E1CD020040
:10709000E1CD0200E1CD0200E1CD0200E1CD020030
:1070A000E1CD0200E1CD0200E1CD0200E1CD020020
:1070B000E1CD0200E1CD0200E1CD0200E1CD020010
:1070C000E1CD0200E1CD0200E1CD0200E1CD020000
:1070D000E1CD0200E1CD0200E1CD0200E1CD0200F0
:1070E000E1CD0200E1CD0200E1CD0200E1CD0200E0
:1070F000E1CD0200E1CD0200E1CD0200E1CD0200D0
:107100004FEA4102B2F1E04324BFB3F5001CDCF1C9
:10711000FE5C0DD901F0004C4FEAC0024CEA507001
:10712000B2F1004F40EB830008BF20F00100704730
:1071300011F0804F21D113F13872BCBF01F0004033
:10714000704741F480114FEA5252C2F11802C2F165
:10715000200C10FA0CF320FA02F018BF40F00100E6
:107160004FEAC1234FEAD32303FA0CFC40EA0C0098
:1071700023FA02F34FEA4303CCE77FEA625307D1D5
:1071800050EA01331EBF4FF0FE4040F4400070470C
:1071900001F0004040F0FE4040F40000704700BFA6
:1071A00053B94AB9002908BF00281CBF4FF0FF316E
:1071B0004FF0FF3000F00CB8ADF1080C6DE904CED3
:1071C00000F022F8DDF804E0DDE9022304B07047A6
:1071D000704700BF10F8012B11F8013B012A28BFAE
:1071E0009A42F7D0D01A7047034611F8012B03F8E2
:1071F000012B002AF9D17047034613F8012B002A0E
:10720000FBD1181A013870472DE9F04786468C46A5
:107210000846089E154674461946002B40F0C28069
:107220008542B2FA82F245D94AB1C2F1200300FA8E
:1072300002FC2EFA03F3954043EA0C0C94404FEA0B
:10724000154EA8B2BCFBFEF8230C0EFB18CC08FBB5
:1072500000F943EA0C43994528D9EB1808F1FF37A8
:1072600004D2994502D9A8F102072B44A3EB0903E4
:10727000A4B2B3FBFEFC0EFB1C330CFB00F044EA93
:107280000344A04214D92C190CF1FF3304D2A042BC
:1072900002D9ACF102032C44241A43EA07401EB180
:1072A000D440002334607360BDE8F0874746DDE7D3
:1072B0006346F1E792BB431B01214FEA154EAFB283
:1072C000B3FBFEFC200C0EFB1C330CFB07F840EA62
:1072D0000343984562D9EB180CF1FF3004D298456E
:1072E00002D9ACF102002B44A3EB0803A4B2B3FB18
:1072F000FEFC0EFB1C330CFB07F744EA0344A742D9
:107300004ED92C190CF1FF3304D2A74202D9ACF1AB
:1073100002032C44E41B43EA0040C0E7C2F120030F
:1073200020FA03F1954090402EFA03F303434FEA0D
:10733000154EAFB2B1FBFEFC0EFB1C10190C0CFB82
:1073400007F841EA0041884504FA02F422D9691895
:107350000CF1FF3004D2884502D9ACF10200294477
:10736000A1EB08019BB2B1FBFEFC0EFB1C110CFB58
:1073700007F743EA01439F420ED9EB180CF1FF31A6
:1073800004D29F4202D9ACF102012B44DB1B41EA3B
:10739000004192E76046E3E76146F7E76046A3E70E
:1073A0006346B7E7834206D916B9002108467BE752
:1073B000C6E900E0F9E7B3FA83F78FB9834201D356
:1073C000724508D8BEEB020460EB030301209C4623
:1073D0001EB9002168E73846FAE7C6E9004CF8E72D
:1073E000C7F1200CBB4022FA0CF41C432EFA0CF11E
:1073F00020FA0CF3B84001434FEA14490EFA07F59E
:10740000B3FBF9F81FFA84FE09FB18300B0C08FBDC
:107410000EFA43EA00439A4502FA07F240D9E3180C
:1074200008F1FF3004D29A4502D9A8F102002344A2
:10743000A3EB0A0389B2B3FBF9F809FB183308FB85
:107440000EFE41EA03418E452CD9611808F1FF3345
:1074500004D28E4502D9A8F10203214443EA004038
:10746000A0FB0298A1EB0E014145CE46434602D354
:1074700006D14D4504D2B9EB020E68EB0403013886
:10748000002EA6D0B5EB0E0261EB030101FA0CFC55
:1074900022FA07F34CEA0303F940C6E9003198E702
:1074A0004046C5E74346D9E7F7B5002101AA40F6B3
:1074B000034006F0F7FD0446002869D10198C3682F
:1074C0001B788BB9BFF35B8FB94B1A68BFF35B8F27
:1074D00002F00902BFF35B8F53E8001F43E800246A
:1074E000002CF9D1BFF35B8F05F010FF01AA00213A
:1074F00041F2030006F0D6FD0446002848D1019A67
:10750000AC4DD168D1F80100D1F8051005F1780330
:1075100003C3104605F0FAFE214601AA41F201001C
:1075200006F0C0FD044698BB0198C3685A7885F8F8
:1075300070205A88A5F872201A7985F87120B3F85E
:107540000720A5F87420B3F80530A5F8763005F0CB
:10755000DDFE214601AA41F2020006F0A3FD044629
:10756000B0B9019FFA6805F18006531C41321868D2
:107570005968344603C4083393422646F7D1384647
:1075800005F0C4FE95F87C305B0604D46FF012045D
:10759000204603B0F0BD01AA002142F2030006F02C
:1075A00081FD04460028F3D1019B834EDA68D2F8AE
:1075B0000100D2F8051003C6184605F0A7FE2146C3
:1075C00001AA42F2020006F06DFD04460028DFD158
:1075D000019CE368B3F8012091B249B1D97839B17F
:1075E000A5F80421DA78114606F128002DF029FBD0
:1075F000204605F08BFE95F87C601F2316F02006D0
:10760000A5F8203118D1022140F66D4006F0B4FBF8
:107610000446002800F0C48002210C3027F0ABFCA7
:107620000123037046702146324640F66D4006F055
:1076300039FD04460028ABD195F89C301F0712D5C0
:1076400001AA002142F21C0006F02CFD044600288D
:107650009ED10198C368D3F80120D3F80530C5E95D
:10766000382305F053FE95F8D8309E0624D50DF149
:107670000201684628F0EEF80446002888D104216B
:1076800042F2240006F078FB0646002800F08880CD
:1076900004210C3027F06FFCBDF800300380BDF8EA
:1076A000023043802246314642F2240006F0FAFCC2
:1076B000044600287FF46CAF95F8D8305C0610D5EE
:1076C00001AA002142F22A0006F0ECFC0446002840
:1076D0007FF45EAF0198C3685B7885F8223105F0CE
:1076E00015FE082142F2010006F046FB0446002880
:1076F00056D008210C3027F03EFC95F8D81011F038
:10770000400F024640F2022308BF032388074CBF04
:1077100043F02C0043F00C0095F8D9308F0648BF99
:1077200040F0400013F0090F18BF40F40060CE078E
:1077300048BF40F01000002127F07EFE21460022C5
:1077400042F2010006F0AEFC044600287FF420AFB0
:1077500095F87C30B5F80411980624D4C9B901AA6B
:1077600041F2050006F09EFC044600287FF410AFAD
:10777000B5F80431019C4BB9E368B3F80120A5F8D2
:1077800004219A880D4811462DF05BFA204605F039
:10779000BDFD082140F6014006F0EEFA044678B936
:1077A0006FF06804F4E60029F3D16FF00404EFE60B
:1077B000D400002000000020D80000200801002094
:1077C00008210C3027F0D7FB95F8D830D9070246AE
:1077D00053BF4FF000512CA1D1E90001284827F0F8
:1077E0002BFE2146002240F6014006F05BFC0446D9
:1077F00000287FF4CDAE014601AA4FF6014006F005
:1078000051FC044620BB019805F080FD214601AAE9
:107810004FF6024006F046FC0446C8B90198C3681A
:10782000B3F80130A5F8C13005F070FD95F8C1300E
:107830005B070DD501AA21464FF6034006F032FC46
:1078400030B90198C3685B7885F8C03005F05EFDFB
:1078500028F0D7F9044600287FF49AAE08F00CFD12
:10786000044600287FF494AEEB79002B3FF490AEF1
:107870000821044827F042FD06F064FB88E600BFBB
:1078800010880002D40000209088000200800020B0
:107890002DE9F843D0E90738856903EB08042F3454
:1078A000A5420F46164619D8DFF87080A3FB0801E1
:1078B00017A3D3E90023FFF773FC0346601BA0FB6B
:1078C000080123F07F4412A3D3E90023FFF768FCEB
:1078D00020F07F403C603060BDE8F883DFF83C90EA
:1078E0000BA3D3E90023A5FB0901FFF759FC20F006
:1078F0007F4409480A2106A3D3E90023E8FB0901D4
:10790000FFF74EFC20F07F403C603060BDE8F8831C
:107910008D49FD1A0700000000166BF100CA9A3B62
:107920009FED097B0E4B0F4A0F4983ED007B9FEDC6
:10793000087B82ED007B9FED087B0C4B002281EDE4
:10794000007B1A600EF066BFFFFFFFFFFF1F000005
:1079500000000000000000001F0000000000000008
:10796000900100207021002088010020C8480020DC
:10797000002800F05F812DE9F04FB54C94F86A20A3
:1079800012F001058DB040F0A68194F82500FF2388
:1079900000F0030084F8263017F074F894F86A00B9
:1079A000420727D494F8292094F8353004EB82025A
:1079B00004EB8303D66AD3F8388086B1A4483146F5
:1079C00010F002FD33785B0605D506210BF0B2FE00
:1079D000002800F082819E48414610F0F5FC337883
:1079E00013F00E0F40F0B780236A93B10C200DB056
:1079F000BDE8F08F2A4604F16B01C0F3C00017F018
:107A0000B9F9FF2884F82600CCD0284617F054F89E
:107A1000C8E70EF0D1F98146002800F06C810EF025
:107A2000D7F98246002800F0638110F0D5FF0546A3
:107A3000002800F06281D0F894004FF6FF732B8687
:107A400005F11C0B002800F04E8105F1840105F1C1
:107A500088020BF07BFEB5F882307E4A23F4EF6398
:107A600023F0070343F48C7343F00103A5F882303D
:107A70001346D2F80120C5F8AB21C5F8B12113F89F
:107A8000012B9B88A5F8AF31A5F8B53195F8AA313F
:107A900002F0010262F3000362F3410385F8AA31A8
:107AA00095F8433003F03F0363F07F0385F84330DC
:107AB00095F89A3023F0070385F89A3095F8483006
:107AC00023F00F03002785F848304FF4C023C5F892
:107AD00098312846C5E91577C5F89470A5F89870CF
:107AE00085F84570EF86C5F83A70EF65A5F89E7188
:107AF000A5F8947113F05AF985F86071C5F864918E
:107B000011F056FA95F8A43160F3020385F8A43118
:107B100011F054FA95F8A43160F3C50385F8A43147
:107B200095F8903167F3410385F89031012128469B
:107B300011F09EFE05F1E00012F010FFC4E9189A62
:107B4000C4F820B0C5E905772F70ED6118F0F4F99D
:107B5000002840F0C48094F824300121C3F342038C
:107B60000DF12B008DF82B300BF08EFF0246002814
:107B700062D098F80110304610F0E0F93123364910
:107B8000A360364BB4F86870A0FB01010025C01853
:107B900041F107012CA3D3E90023C4E90555257061
:107BA0006560E560FFF7FCFA20610DF02DFA00F149
:107BB00009083FB9357805F00F05A5F10105B5FABB
:107BC00085F56D0994F82400236965F3000010F031
:107BD000010584F824004BD0214A0992002010604E
:107BE0000225204A204F04930BAE019305920321F6
:107BF000CDE90200069443460090089607972A466E
:107C00000B950DF003F931460EF098F9A0B917491C
:107C100005914AF2D8330093CDE90300CDE9010084
:107C20000797089606944346012203210B950DF011
:107C3000D1F843E010F0D2B8236A002B3FF4D6AE5F
:107C400010F088F8D2E600BF8D49FD1A0700000049
:107C500000490020E792050000CA9A3B8C49FD1AB2
:107C6000F4480020B97F0300695103009D7A0300A6
:107C7000274A2848049303F247130694029591215A
:107C80001360A7FB000301FB0731234B0793234B32
:107C900005934FF6FF730992022703930BAE1AA3C5
:107CA000D3E900230B970896FFF77AFA4346CDE90C
:107CB00000503A46284603210DF0A8F831460EF050
:107CC0003DF90028B8D194F86A300120034384F8C4
:107CD0006A3016F0B9FE002089E6122087E610F01F
:107CE00039F8032083E605F18C00C5F89400ACE672
:107CF00048460EF067F8072079E650460EF06EF819
:107D000048460EF05FF8F6E78D49FD1A07000000BF
:107D1000F4480020002AE78469510300B97F03007A
:107D200070B590F824308AB0C3F342030D46044680
:107D300001210DF1230016468DF823300BF0A4FE2F
:107D400071780246284610F0F9F81F491F4AA0FB37
:107D50000131981841F1070119A3D3E90023FFF776
:107D60001FFA23699842054621D21B1A002201926C
:107D7000174A0293174BA21AA3FB0232022192095F
:107D800000230A4409AE099113490591CDE9033353
:107D90000321D2B20696009318460DF097F83146AB
:107DA0000EF0CCF838B9256100200AB070BDFBD9BF
:107DB000C21A0023DBE70C200AB070BDAFF30080CD
:107DC0008D49FD1A0700000000CA9A3B8C49FD1A34
:107DD000004900208988888869510300000000005C
:107DE0002DE9F04F06468DB08A46012002219946C2
:107DF00015461AF03FF800220B90022101200BF0EB
:107E0000F5FC3B494FF4DC7230460BF07FFCC71C9D
:107E1000384B0093FFB201964B463A4601210020B1
:107E20000DF0AEF810F0FD0F0ED0334A3349344850
:107E300040F68F0326F0CAF8002383F31188BFF3BE
:107E40006F8F0323184602DF2E4CA5FB044526A3A3
:107E5000D3E9002320462946FFF7A2F908960696A3
:107E600033690493284B20F07F48A8FB0331E01AC4
:107E7000264B07934FF00702254B059302FB081191
:107E80004FF6FE7365EB010103934FF47A72002302
:107E9000FFF786F94FF0000BCDE90180CDF800A087
:107EA0004B463A46012158460CF094FF10F0FD0F66
:107EB0000DD0114A1149124840F6A40326F086F865
:107EC0008BF31188BFF36F8F0323184602DF0B9BE0
:107ED00013B90DB0BDE8F08F0122022110460DB09C
:107EE000BDE8F04F0BF082BC8D49FD1A0700000081
:107EF000782100207989030000730500C473050010
:107F0000E06D050000CA9A3B8D49FD1A19890300EE
:107F100031DF0300000000002DE9F0418468228E6B
:107F20004FF6FF739A428CB045D00546204613F0B9
:107F3000DBF92B7D012B00F02281022B00F0158153
:107F4000002B00F0F48094F86061002E40F0108166
:107F50002B8A678F94F94320CDE90A6673B3002A10
:107F6000C0F25A810023A4F89A31AA7C238FFD180D
:107F700002F003030135012BADB23BD0B4F89E31C2
:107F8000002B00F005819D4280F059815B1B9BB264
:107F90000022062BA4F89E31628740F2F68094F905
:107FA00043309342C0F25081002326E09DF8271011
:107FB000204611F021F90CB0BDE8F081002AB8BFCD
:107FC00084F88561238FAA7CFD1802F00303013534
:107FD000012BADB20ED0B4F89A31002BCED0AB420B
:107FE00040F23C815B1BA4F89A31B4F89E31002B1F
:107FF000C9D102E00023A4F89E3194F8482063F32D
:10800000820284F8482029460DF12702204612F00A
:1080100009FF7430CAD0B4F898312BB1AB4240F2AA
:10802000EC805B1BA4F89831B4F894312BB1AB42CF
:1080300040F2DA805B1BA4F89431658F16B9AF4229
:1080400000F0C9800135ADB294F8DD3013F00107BE
:1080500031D1DDE90A130A46002B40F0CC8000291B
:1080600000F0BB801F461846228EE4690694CDE9D5
:10807000035603329A4D0290CDE90017D2B2012186
:10808000002005950CF022FF10F0FD0F93D00DF0AD
:108090007FFF84428FD0934A934994484FF4AE6354
:1080A00025F094FF002383F31188BFF36F8F032320
:1080B000184602DF7FE794F943206FF30003002A9C
:1080C00084F8DD307FDB94F88200C0F3C00100F05B
:1080D000070017F049FDB4F87A20B4F8783013445B
:1080E000628D03F23F1313440344814A8148072100
:1080F000E3FB0021104678A3D3E90023FFF750F8F3
:10810000DDE90A1320F07F4220692261904235BFE9
:10811000171A801A002000270A46002BA4D157EA1C
:10812000010CA1D1002858D019461F469CE794F8AD
:108130009A3003F01803182B7FF405AFA18EB4F822
:1081400096218B1D9A42C4BF931F5B1AB4F89211FB
:10815000CCBF9BB21346994200F09C80A4F89231A8
:10816000A4F89431A4F89821EDE63D2684F86061E6
:10817000314620460CB0BDE8F04111F03DB8002377
:10818000A4F89831A4F89431DDE60126334634E7AB
:10819000628E052A97BF013240F2E2434FF4FA7330
:1081A00092B203FB02F2B4F89C3142F2107101FB6F
:1081B0000323013BB3FBF2F39BB2A4F89E31002BE7
:1081C0007FF4E1AE19E794F88300012100F0070085
:1081D00017F0CCFC7FE7354636E7002D43D000276B
:1081E000114638463B463FE70023A4F89431204629
:1081F00012F0BAFE21E7384636E70DF031FE0146AF
:10820000A0B30023A4F89831238EC3801B230371ED
:1082100000680DF0F5FD07E794F885316BB3013B7D
:1082200084F8853104F1E008404612F0D9FBB8B378
:10823000404612F0D5FBB8B30023638792E60821CD
:10824000204610F0D9FFB6E6A7B9D4F888315A080D
:1082500013F0010336D1C4F88821A5E63E2120465B
:1082600010F0CAFFA7E6002EB9D1A4E60123A4F8B6
:108270009831D9E613460126BFE60AAA0BA928467B
:10828000FFF706FBDDE90A231343CBD0237884F8FC
:108290008531C7E7B4F8981100297FF454AE5FE741
:1082A000FF2010F065FFC3E70246D4E921010BF07F
:1082B00065FA0028C0D194F848301B0744BFA38E4C
:1082C00063874FE642F000421E46C4F888213B46D1
:1082D00093E600BFAFF300808D49FD1A0700000050
:1082E000D58803000073050040740500E06D0500AB
:1082F0008C49FD1A00CA9A3B2DE9F04F87B0CDE9B1
:108300000423BDF8442003780292BDF84820BDF84C
:1083100040A0BDF84C90878F019104460392002B3A
:1083200000F0D480013FBFB2A368D4F81CB1A7EB22
:10833000090292B2002B00920ADAE168626823F027
:10834000004391422CBF8B449344A360ABEB030BDF
:1083500094F88200C0F3C00100F0070017F004FC9D
:10836000658E052D40F2AA80009B15FB03F5ADB28A
:1083700040F2E248BAF1050F40F29480B4F87A2056
:10838000B4F87830134403F2D51303447A4A7B4897
:108390000721E3FB00214FF09613A36296231046BA
:1083A000A38573A3D3E90023FEF7FAFE564620F017
:1083B0007F4040F2E24308FB05F103FB06F6B1FB08
:1083C000F6F81FFA88F5206106FB05F08142A84601
:1083D0005AD2401A694966A3D3E90023A0FB0101E0
:1083E000FEF7DEFE20F07F408344E38EB4F82421C4
:1083F0001344994494F84330A9EB0709C844DB09B6
:10840000A4F8368069D15E4A5E495F4840F667133A
:1084100025F0DCFD002585F31188BFF36F8F032362
:10842000184602DF3746029BA386039BA4F89C31C3
:1084300031462046A4F832A012F030FD534BA18EF5
:108440003344881DB3FBF6F39AB29042A4F8962108
:1084500004D2C1F57F41FA310A4492B2019BA4F8DB
:10846000922113B10023A4F89E315B463A46294677
:108470002046FFF7B5FC94F8903143F0010384F8EF
:10848000903107B0BDE8F08F091A3C4838A3D3E912
:108490000023A1FB0001FEF783FE20F07F40ABEB41
:1084A000000BA2E74FF096130AF10106A362962390
:1084B000A385B6B20A204FF4FA737CE7009B01351E
:1084C00015FB03F5ADB24FF4FA7853E7C38E1F44A2
:1084D000B0F824311F44BFB226E7E26C0099636D07
:1084E00002FB1133636517F077FD074694F88401AA
:1084F000C0F3420017F072FD074406FB07F7244B58
:1085000007F5742707F23F27A3FB0737BF0C636DFE
:10851000E76405FB07F072080344963A934228BFCC
:108520001346C4E91423049B144D40F2E24808FBAF
:1085300003F3E3650023A0FB0501C4F88C310CA311
:10854000D3E90023FEF72CFE124B059AABEB000B90
:10855000A3FB0230800A08FB00F0A0FB050104A386
:10856000D3E90023FEF71CFEF71B20F07F455AE7F6
:108570008D49FD1A070000008C49FD1A00CA9A3B7C
:1085800000730500B86E0500E06D05007FC3C901EA
:1085900083DE1B435917B7D12DE9F04F04460B6812
:1085A000077F1668D3F800A0638CD0F81E0095B042
:1085B00015464A7CADF84C30FF2AC7F38013884635
:1085C0000D9212908DF83F3076D199461A4612AB33
:1085D00093E803000DF1400B1090ADF84410F8093A
:1085E0000AF1710127680A915B460C900B9710F015
:1085F000EBFC0A99002847D196F8AA310C9A0A9008
:1086000069F3410362F3000386F8AA311098BBF8BE
:108610000430C6F8B101A6F8B531DAF87130C6F801
:10862000AB318B88A6F8AF31E38D94F83010A97286
:108630002B81D4F82A306B60D4F83A30C5F8223058
:1086400005F1220094F83E30037105210BF01CFA6D
:1086500095F8273000F03F0060F3050385F82730D8
:1086600094F83F30C3F3040185F82810A18EE98205
:10867000012803F01F0389B206D91B3303F01F033F
:108680000B2B01D80A9A59BB0022CAF8142095F87E
:108690002C300B9862F3000385F82C30E568012636
:1086A000214626710DF0A0FB28682E7129460DF099
:1086B000A7FB15B0BDE8F08F0DF1400B10460DF192
:1086C0003F015A4615F042FF9DF83F90277F09F180
:1086D00002095FFA89F98DF83F9009F001027EE7FF
:1086E000D8F800305A60E38E2B83EB8A40F2E249DF
:1086F00009FB03F71146638E0A93304612F0E2FB42
:1087000094F83F3096F884215B0963F3430286F8BE
:10871000842117F061FC0C9096F88401C0F34200AC
:1087200017F05CFC0C9BC04A034407FB03F303F502
:10873000742303F23F23A2FB03239B0C2B637B08D0
:10874000963B6B6394F8313009FB03F36B64238F22
:10875000A6F89C313946304612F0A0FBB34BB44A20
:10876000C6F8A0213B44B3FBF7F39AB2A6F89621D2
:10877000298B881D824204DDC1F57F41FA310A440C
:1087800092B2A6F892216B68C6F88831234613F896
:108790001C2FC2F34019DA0700F103814FF48073F4
:1087A000A3839AF8260016F0F9FB04F12B030028A6
:1087B00000F0F380626AC4F82B20228D9A800D9B12
:1087C000FF2B00F02681BDF84C301298A4F8293018
:1087D000C4F82500BBF80430A4F8233010989DF8A5
:1087E0003F30C4F81F00A377EB8A63862B8BA386E8
:1087F000B6F89C31E38696F88431C3F3420384F8DB
:108800003830304610F0F4F8A882E08021460B980A
:10881000D8F804400DF0E8FAAB8AE3801C23D4F8C2
:1088200000B02371B9F1000F40F0D28084F81C90A1
:10883000214658460DF0E4FA95F86700B5F85C90CB
:10884000B5F85E40012100F0070017F08FF94C44A5
:1088500004F2D514DFF8E4910444834675484FF0E0
:1088600096130721C5E90333E4FB090131230024F2
:10887000B36074606AA3D3E90023F460FEF790FC50
:1088800020F07F4030612D6B0A9A7D1BD8F80C7068
:1088900040F2E24303FB02770221224601200AF064
:1088A000A5FF50460FF04CFD07F2B3470246A7EB79
:1088B0000B07A7FB0901174659A3D3E90023FEF7CD
:1088C0006FFCCDF804A0D8F808305B49009120F087
:1088D0007F49BA1C3A3BD2B24B44012120460CF0EE
:1088E0004FFB012800F081809AF82430DB0767D421
:1088F000304610F07DF8514BA5FB035A044648A3BF
:10890000D3E9002328465146FEF74AFCD8F8083040
:108910004B4A0792A3F13A084A4B069620F07F474C
:10892000A7FB0331E81A484B05934FF4F5730893FE
:1089300033694FF0000BCDE903B34FF0070303FB9E
:1089400007116AEB01014FF47A720023FEF728FC4D
:108950000334E4B2CDE90170CDF8009043462246DD
:10896000012158460CF036FA10F0FD0F0DD0374AB1
:108970003749384840F2EB1325F028FB8BF3118878
:10898000BFF36F8F0323184602DF01220221104636
:108990000AF02CFF15B0BDE8F08FC4F82B009880CA
:1089A0000DE72A4A2C492B48FD2325F00FFB002315
:1089B00083F31188BFF36F8F0323184602DFEDE6C0
:1089C000002301220093184611460CF097FA8FE716
:1089D00095F8273043F0400385F82730281D15F01F
:1089E000BFFB4FF00109288520E70DF0D1FA824541
:1089F0003FF47AAF154A1949164840F2922325F000
:108A0000E5FA84F31188BFF36F8F0323184602DF62
:108A10006AE70022C4F82520A4F82920DAE600BF7E
:108A20008D49FD1A0700000083DE1B437FC3C90187
:108A3000404B4C008C49FD1AF1DE030000CA9A3B02
:108A4000BDDE03008D49FD1A31DF030020790500EA
:108A5000C4730500E06D0500D47005007C79050045
:108A600010B5334C3349002304F1FF3C14F8332094
:108A7000072A02EB820E05D811F83E206FF345124B
:108A800001F83E201CF833206FF300020CF833206D
:108A90000133082BEAD1284A284C002313700A78A6
:108AA00063F300020A7091F8282063F3000281F852
:108AB000282091F8502063F3000281F8502091F8AB
:108AC000782063F3000281F8782091F8A02063F306
:108AD000000281F8A02091F8C82063F3000281F819
:108AE000C82091F8F02063F3000281F8F02091F89B
:108AF000182163F3000281F81821114A9FED0A7BC7
:108B00001370104B83ED007B0F4B236028B1BDE841
:108B100010400E490E482CF064B9BDE810400C48D6
:108B20002CF06BB9AFF30080FFFFFFFFFFFFFFFFEB
:108B30009554002054530020D66E0020645200202B
:108B4000D56E0020402A0020A0BB0D00ADEC030034
:108B5000102A0020000000002DE9F04F8FB00DF129
:108B600037010446DFF8E0A0DFF8E0800DF13600C1
:108B70000DF0BCF99DF836309DF837B00B930CF032
:108B800043FADAF80060A6FB085629A3D3E90023CC
:108B90000027814631462846FEF702FBCDE90777DC
:108BA000069420F07F44DAF80400234B0593A0FBE1
:108BB00008011FA3D3E90023FEF7F2FA1F4B20F0B0
:108BC0007F40A4FB0331072202FB0411CDE90370AF
:108BD000E81A66EB01014FF47A720023FEF7E0FA1F
:108BE0000097CDE901404B460B985A4603210CF003
:108BF000F1F810F0FD0404D06FF08B000FB0BDE869
:108C0000F08F0F480F4A002321F0E6F920B9DAF877
:108C10000C000FB0BDE8F08F9DF837209DF83600AE
:108C20000094234603210CF069F96FF07300E5E727
:108C30008D49FD1A0700000059F203008D49FD1A05
:108C400008550020447B0B002055002000CA9A3BA9
:108C500038B50F4D04460CF0D7F9A9680CF0D6F9D9
:108C6000696803460B48B3FBF4F4A1FB00011C4404
:108C700005A3D3E90023FEF793FA20F07F40844256
:108C800094BF0020012038BD8D49FD1A0700000067
:108C90002055002000CA9A3BF0B5C468636883B0D1
:108CA0000546002B64D118F065FC002018F088FC04
:108CB0000021084618F076FC00222521082018F033
:108CC000B3FC474B019301A818F09AFC454940F2C8
:108CD0005B6018F04BFD237AC3F3420262F3061384
:108CE0002046237217F096FB16F034FA58BB637ACD
:108CF0009B071FD127682E68384616F0D1FE064420
:108D00006A6806F10901012018F078FE18F036FFB4
:108D100020460FF021FB811C3246C9B2384616F0BE
:108D2000CDFE054678BB204616F062FE88B90020CD
:108D300003B0F0BD012015F07BFE4178821C007865
:108D400018F0FCFDD6E7607A10F0030018BF012090
:108D5000F1E7254A2549264840F2294325F036F90E
:108D600085F31188BFF36F8F0323184602DFDEE718
:108D700093F82C309A0796D01E48214618F0B8FB7D
:108D800018F09EFCD3E7184A1B49194840F21143DA
:108D900025F01CF9194B0721A5FB030301FB053145
:108DA0000DA3D3E90023FEF7FBF915490246154848
:108DB00025F00CF9002585F31188BFF36F8F03238D
:108DC000184602DF1048214618F092FB18F078FC94
:108DD0006FF08B00ACE700BF00CA9A3B00000000B8
:108DE000D6BE898E55555500787D0500B46F0500B7
:108DF000E06D05004DFC0300B86E05008D49FD1ABD
:108E0000287E0500FC7D0500E9FF0300000000004E
:108E10002DE9F041C468A28A4FF6FF739A4282B0EE
:108E200000F0DF80054617F039FE2B89628B208C1D
:108E3000A3831A4492B2104494F82730E28380B29C
:108E4000411C21845E064FF00001618304F1220180
:108E500000F1A18003F03F000B4694F82810009029
:108E600004F1290015F034F90646D4E90C31A28B3F
:108E700002FB0333A26B1344E26B8B4294BFD21804
:108E800052188A4228BF0A46E263616C226C94F849
:108E900067301144616494F87E2094F82C10C3F379
:108EA000020363F3061112F004024FF0000384F88A
:108EB0002C10A363236478D018F05CFB002018F01A
:108EC0007FFB201D18F09CFB2389A17A40F25B6098
:108ED00043EA014118F04AFC304616F001FE2146F3
:108EE000594818F005FBA08918F07CFD94F866201D
:108EF00094F86700C2F3C003002102F0070200F0FB
:108F0000070018F099FC204617F072FE27682E68BB
:108F1000384616F0C5FD06446A6806F109010020CE
:108F200018F06CFD804618F0FDFD002018F014FECE
:108F3000E36B94F8670003F12F02636C00F0070005
:108F4000012103EB420518F0ADFB4544054494F8BC
:108F5000670000F00700022825D004280CBF4FF45A
:108F6000BC73282301211D4418F09EFB284418F0EF
:108F7000CBFDA18A03313246C9B2384616F09EFDB8
:108F80000546002834D1204616F032FDD0B9002025
:108F900002B0BDE8F0810A4603F03F03218D15F0D1
:108FA000E3F8064661E71823DCE7D4E91A010AF082
:108FB000E5FB002880D194F87E3043F0040384F868
:108FC0007E3079E7214A224922484FF4B07324F0D9
:108FD000FDFF85F31188BFF36F8F0323184602DF6F
:108FE000D5E71D48214618F083FA18F069FBCEE753
:108FF000164A1A4917484FF4AB7324F0E7FF184B91
:109000000721A5FB030301FB05310DA3D3E90023D1
:10901000FEF7C6F813490246134824F0D7FF00258F
:1090200085F31188BFF36F8F0323184602DF0F48C3
:10903000214618F05DFA18F043FB6FF08B00A7E7AC
:1090400000CA9A3B00000000690E0400B47E0500CF
:10905000B46F0500E06D05004DFC0300B86E05001F
:109060008D49FD1A087F0500FC7D050029FC0300E1
:10907000F8B510EE904A34F000472DED048B10EE59
:10908000103AB0EE609A0DD183F480035B0013F5C3
:10909000000F40F2098230EE098AB0EE480ABDECBA
:1090A000048BF8BD23F00040B0F1FF4F02D8B7F1B8
:1090B000FF4F08D9B3F17E5FEDD184F480046400E2
:1090C00014F5000FE5E7002B01462DDAB7F1974FB5
:1090D0000CD3B7F1FF4F2AD00225B4F17C5F41D108
:1090E000002BC0F28F80B1EEC08AD6E7B7F17E5F69
:1090F00031D3FA15C2F1960247FA02F505FA02F2E7
:10910000BA423DD1B7F17E5F4AD1002C80F2D281C4
:10911000B5EE400AF1EE10FA50D1D80FBDEC048B39
:10912000BDE8F84023F0FABFB7F1FF4F3DD1B0F1F1
:109130007E5F00F0B98108D9DFED977A002CB4BFCB
:10914000B0EE678AB0EE498AA7E7002C80F2AF81C3
:10915000B1EE498AA1E7B4F1804F34D0B4F17C5F1D
:109160005CD0002523F04042B2F17E5FB0EEC08AB1
:109170003FD1002CBCBFB7EE007A87EE088A29E009
:10918000B7F17E5FC1D00025B4F1804FEAD1B0F1D4
:10919000BF4F1AD2B0F1D05F29D920EE008A7CE708
:1091A00005F00105C5F10205EEE7B7F17E5FACD031
:1091B000B4F1804F4FF00005E9D08EE7B7EE007AAA
:1091C00087EE008A69E70025E1E7B0F1FF4FB0EED6
:1091D000C08A35D1002BBFF660AFA0F17E50284386
:1091E00016D1BDEC048BBDE8F84023F0A7BFB0EE6C
:1091F000C08A28BB002C1EDA002B8FDA6B1E584267
:1092000058418BE7B0F1FF4FB0EEC08A40F0558176
:10921000012D7FF442AFB1EE488A3EE7B0F1FF4F37
:10922000B0EEC08A3FF439AFB0F17E5FD9D00028EC
:109230003FF433AFD5E7012D08BFB0EE408A2CE7ED
:10924000DE0F013E55EA0602CBD0B7F19A4F40F24D
:109250004081524B984208D8002C0BDA0020BDEC1C
:10926000048BBDE8F84023F049BF4D4B984208D924
:10927000002CF3DC0020BDEC048BBDE8F84023F0AB
:109280002DBFB7EE007A38EE478ADFED467ADFED84
:10929000469A3FA1D1E9000168EE278AFDF730FF29
:1092A00007EE900AB5EE007A48EE477AB6EE007AFD
:1092B00007EEC87A68EE087ADFED3C6A27EE277A77
:1092C000F0EE687A47EE667A68EE299A39EEA77A68
:1092D00017EE103A23F47F6323F00F0307EE103AE2
:1092E00077EE699A77EEE97A013D24F47F6435439D
:1092F000B7EE007A24F00F04BFEE008A18BFB0EE7C
:10930000478A07EE104A67EE890A39EE477A07EE78
:10931000903A47EE270A07EE104A67EE877A30EE5A
:10932000A77A17EE101A002921F000431ADDB3F1D5
:10933000864F09D9B5EEC08AF1EE10FA4CBF012074
:1093400000208CE70120E5E036D1DFED196A37EE29
:10935000677A70EEA66AF4EEC76AF1EE10FAE9DCFD
:1093600086232DE0134A934207D9B5EEC08AF1EE69
:1093700010FA4CBF012000207DE71DD137EE677A3F
:10938000B4EEE07AF1EE10FAEADBEEE7AFF300803C
:10939000E13D55555555D53F00000000F3FF7F3F97
:1093A0000700803F70A5EC3600AAB83F3BAAB83F43
:1093B0003CAA383300001643B3F17C5F6FD9DB154C
:1093C0007E3B4FF4000018410844C0F3C753A04A45
:1093D0007F3B1A41024007EE102AC0F3160040F40A
:1093E0000000C3F117031841002977EEC77AB8BF10
:1093F000404237EEA07ADFED976ADFED975A9FED96
:10940000976A17EE103A23F47F6323F00F0307EEF9
:10941000103A77EE677A67EE266A70EEE70ADFEDBC
:10942000907A67EE277A9FED8F7A40EE877AB7EED3
:10943000000A36EEA77A77EE666A77EEE67A67EE8E
:10944000076A47EE277A16EEA56ADFED875A46EEE1
:10945000265A9FED866A15EEA66ADFED855A46EE1E
:10946000265AB0EE476A05EEE66AF0EE006A67EE4D
:10947000065A36EE666AC5EE866A76EEE77A77EECB
:10948000C77A30EE670A10EE103A03EBC053B3F51B
:10949000000F06DA23F0DCFD20EE088AFDE500204F
:1094A000A7E700EE103AF7E7B7EE008AF5E59FED83
:1094B000718AF2E5B0EE408AEFE5B0F17E5F3FF4ED
:1094C0008CAE00283FF4B7AE002D3FF48AAE0225E3
:1094D000002613F0FF4F08BF9FED677A674802BF71
:1094E00068EE077A6FF0170317EE901A4FEAE15211
:1094F00018BF00237F3A1A44C1F31603834243F096
:109500007E5106DD5E4883427FF71CAF0132A1F534
:10951000000100205B4B03EB8003D3ED005A5A4B54
:1095200006EE101A75EE867AF7EE006AC6EEA74AC6
:10953000491041F0005101F5802101EB405136EE18
:10954000657A07EE901A27EE245A15EE107A1F401E
:1095500006EE907A06EEE77A77EEE57ADFED4B5A83
:1095600036EE676A65EE057A06EE667A9FED486A22
:1095700047EE865A9FED476A05EEA76ADFED465A29
:1095800046EE275A9FED456A05EEA76ADFED445A7D
:1095900046EE275A27EE247A36EE856A67EEA77ADA
:1095A00026EE076A05EEA76A66EEA64AF0EE085AAE
:1095B00074EEA57A77EE867A17EE901A194007EEC8
:1095C000901A77EEE55A27EE277A75EEE45A66EEA2
:1095D000A76A36EE656A06EE057A9FED326A76EE88
:1095E000877A17EE901A194007EE901A77EEE66A1E
:1095F00027EE866A37EE667ADFED2B6A2B4967EE37
:10960000A67ADFED2B6A47EE267A01EB800191ED19
:10961000007A77EE877A07EE102A264A02EB80025C
:10962000D2ED005A76EE276AB8EEC77A76EEA56AD2
:1096300076EE876A16EE902A134006EE903A36EEE2
:10964000C77A37EE657A37EE467A77EEC77A4BE619
:10965000000080FF0072313F4CBB31330EEADD3534
:109660008CBEBF351872313F55B38A38610B363B1B
:10967000ABAA2A3E000000000000804B71C41C0011
:10968000D6B35D00208D050000F0FFFF55326C3E23
:1096900042F1533E05A38B3EABAAAA3EB76DDB3E1B
:1096A0009A99193F0038763FA0C39D36108D05006A
:1096B0004F38763F188D0500014828F05FBF00BF86
:1096C000185E0500012B07B50FD112780848012A52
:1096D00014BF002257228DF8072000210DF1070248
:1096E00028F0BFFE03B05DF804FB6FF08500F9E7DA
:1096F000185E0500012B13B5144611D10A480DF16F
:109700000702002128F0D2FE002807DB9DF8073071
:10971000A3F15702534253412370002002B010BD01
:109720006FF08500FAE700BF185E0500014820F0E1
:109730002DBE00BFB0020020014820F027BE00BFB0
:10974000A002002007B52BF0D7FC4FF47A72A0FBE3
:10975000020302FB0131C00B074A40EA414010609E
:1097600000234FF400420548CDE9002321F0D6FC48
:10977000002003B05DF804FBF02F0020100A002049
:10978000014B187800F080B9986D0020044B1A78CE
:10979000824202D01870FFF7F3BF0020704700BF6D
:1097A000986D002008B52BF0A7FC4FF47A72A0FB4F
:1097B000020302FB0131084AC30B126843EA41432A
:1097C0009B1A47F23052934204DDBDE80840012065
:1097D000FFF7DCBF08BD00BFF02F002008B52BF05D
:1097E0008BFC4FF47A72A0FB020302FB0131C00B29
:1097F000044A40EA41401060BDE808400020FFF7FD
:10980000C5BF00BFF02F0020014B1878704700BF84
:10981000986D0020F8B5044610B900252846F8BD1B
:109820000378002BF9D00F4E0F4FBE420FD30D4ED1
:10983000BE42F2D230682BF011F830B135682146C3
:109840002868FDF7C7FC0028E8D00436F0E7306848
:109850002BF004F818B135682B68A342DED004362B
:10986000E3E700BF38AC05005CAC050070B5194CEF
:10987000194D8CB00022002303A9204620F016FACF
:1098800008B10CB070BD2B68059E5868DDE9031265
:1098900023F011FD0028EDDBFF238DF81830B6FA18
:1098A00086F35B0907908DF820302BF025FC4FF4F0
:1098B0007A72A0FB020302FB0131C00B40EA414077
:1098C000C90B8DE8030006ABCDE90A010FCB00F010
:1098D000F5F8CFE7480B0020083000201FB50A4CF0
:1098E0002468A46884420DD183F00103CDE90112FC
:1098F000039306480022002301A920F079F90448C7
:1099000020F044FD04B010BD08300020480B0020BA
:10991000F82F00201FB50023CDE90233044B8DF84A
:109920000C0001A8019323F0EDFC05B05DF804FBE9
:10993000C4650500014B036001207047F42F00202F
:1099400038B5044628B3144D2B6883421FD02BB181
:10995000986818B183685B6803B198470F49104B4A
:109960008C4214BFED2100210122002023F0BDFC18
:1099700000280DDBA0682C6048B1836809491B688A
:1099800098472B68986883689B6803B198470020C4
:1099900038BD6FF01200FBE708300020AC65050011
:1099A000F42F0020DD98020038B5054648B9064876
:1099B000FFF7C6FF041E02DB2846FFF7ABFF204679
:1099C00038BD6FF01504FAE7AC650500F7B50C4635
:1099D00015460D4901AA1E4625F0D9F868B1019B2C
:1099E0006BB9012C0DD1094F224639463046A847A4
:1099F000002802DD3878FFF7D7FF03B0F0BD002064
:109A0000FBE76FF01500F8E7698E05009809002064
:109A10000148FFF795BF00BFAC65050008B50549D3
:109A200005482BF091F9054B00221A60BDE808406B
:109A3000FFF7EEBF6D980200F82F0020F42F0020F2
:109A4000F8B50F4D0F4E761B07460C4605EBC105CA
:109A5000C6F3C706A64201DC00200CE02A683B687A
:109A60009A4209D13C716B6838461B68984718B117
:109A7000431E012BF0D9F8BD01340835EAE700BFD9
:109A8000A89D0500E89D05001FB50023CDE9023320
:109A9000044B8DF80C0001A8019323F033FC05B0B2
:109AA0005DF804FBC86505000268034B9A420CBFD1
:109AB00008300020704700BFC865050084B030B58D
:109AC00089B00CAC84E80F00002301930CAD084B67
:109AD00000930FCD02AC0FC495E8030084E80300A7
:109AE000684623F00FFC09B0BDE8304004B0704771
:109AF000CC6505000268034B9A420CBF0830002079
:109B0000704700BFCC6505001FB50023CDE90233C7
:109B1000044B8DF80C0001A8019323F0F3FB05B072
:109B20005DF804FBD465050082B038B504A981E86E
:109B30000C00054611481FF0ABFE0446A0B16B684F
:109B4000012B0CD0022B05D0A3B9BDE8384002B0E0
:109B500023F0F8BB23F0FDFB00282046F5DCBDE830
:109B6000384002B023F0E7BB6FF00400BDE8384096
:109B700002B070476FF08500F8E700BF278F05003F
:109B800082B010B502A981E80C0004460B481FF012
:109B90007FFE78B16368022B04D00020BDE810403E
:109BA00002B0704723F0D5FB0028CCBF0020012075
:109BB0006060F2E76FF00400F0E700BF278F050058
:109BC00002460249024823F01CBC00BF543000206A
:109BD0003866050002460249024823F012BC00BF65
:109BE0003C3000202866050002460249024823F066
:109BF00008BC00BF24300020186605000246024958
:109C0000024823F0FEBB00BF0C30002008660500B0
:109C10000D4A52F82030013342F820300B4A01231C
:109C2000117883400B430A490978DBB2137023EAA9
:109C300001030849084A097850780B43181A5370F1
:109C400018BF0120704700BF803000209C6D0020AD
:109C50009A6D00209B6D0020B009002010B5114ABC
:109C600052F82030002B19DD013B42F820300E4A1B
:109C70002BB913780121814023EA010313700B48AB
:109C80000B4B047810780B4A5978127820EA0400BC
:109C900010435870401A18BF012010BD6FF0150016
:109CA000FBE700BF803000209C6D00209A6D0020F3
:109CB000B00900209B6D0020044A012312788340E4
:109CC000D8B213401B1A5842584170479C6D00206F
:109CD00010B5084B084A1870084B51781C78084B8F
:109CE0001B7823EA040318435070401A18BF012060
:109CF00010BD00BF9B6D0020B00900209A6D0020B0
:109D00009C6D0020074B00221A70074B074A1978F8
:109D1000074B50781B7823EA0103181A537018BFB9
:109D2000012070479B6D00209A6D0020B009002033
:109D30009C6D0020A0F1E003072B03D82030C0B2B7
:109D4000FFF766BF064B062213F8011F19B1013A4F
:109D5000FAD10020704718700028F8D0F9E700BF4A
:109D6000B2090020A0F1E003072B10B405D8203081
:109D70005DF8044BC0B2FFF771BF0023064A1946D5
:109D800012F8014F0133A04208BF1170062BF7D122
:109D900000205DF8044B7047B2090020A0F1E003F9
:109DA000072B03D82030C0B2FFF786BF064A002336
:109DB00012F8011F884204D00133062BF8D100208D
:109DC00070470120704700BFB2090020024B0022FB
:109DD0001A605A60704700BFB1090020B0F5805F7B
:109DE00010B510D20949002301EB4302B2F801403B
:109DF00024B10133062BF7D1002010BDA2F80100D9
:109E00000028F6D0F8E76FF08500F6E7A3090020F8
:109E100030B50023074C194604EB43020133B2F876
:109E20000150854204BF51709170062BF4D100207F
:109E300030BD00BFA3090020024B00221A605A6007
:109E40009A607047A4090020074A002302EB4301EF
:109E5000B1F80110814204D00133062BF6D1002065
:109E600070470120704700BFA3090020042810D8C4
:109E7000094A52F82030013342F82030074A0123C2
:109E8000117883400B43DBB21370054A00205370F6
:109E900070476FF0150070476C300020996D0020FE
:109EA00099090020042814D80B4A52F82030002BBE
:109EB0000FDD013B42F82030084A2BB9137801210D
:109EC000814023EA01031370054B12785A70002079
:109ED00070476FF0150070476C300020996D0020BE
:109EE00099090020014B58809980704799090020FA
:109EF000014B1881D980704799090020024B00223C
:109F00001A605A601A7270479A0900200048704718
:109F1000B009002000487047A3090020004870479E
:109F20009909002008B503460069034903632AF034
:109F300058FF002008BD00BF0DA00200F8B52DEDB0
:109F4000028B0C46B1F90410054631B99FED2D0A7C
:109F500084ED000ABDEC028BF8BDD4E9027657EA25
:109F600006004CD0A888C01946F10006121A63EB0F
:109F70000603012A73F1000041DB4FF47A7607EE05
:109F8000901AA2FB062106FB0311E888D30B43EAD3
:109F9000414398424FEAE1314FF000028A41B8EE66
:109FA000E78A14DB98B16A7A8AB107EE100A07EEE5
:109FB000903AB8EEC70AF8EEE77A07EE102A87EE75
:109FC000800AF8EE470AFFF753F828EE008A2B7A4A
:109FD000DFED0D6A07EE103AB8EEC77A27EE087A81
:109FE000C7EE267A94ED007A77EE877ABDEEE70A1F
:109FF000B8EEC00A77EEC07AC4ED007AAAE7DFEDCA
:10A00000017AEFE70000000000007A442DE9F041FA
:10A010002DED028B076B84B07E6804462BF06CF844
:10A020000D4602460B46804604F138013046FFF7E4
:10A0300085FF2B46424604F148013046F0EE408A47
:10A04000FFF77CFFFDEEE87AB0EE408A17EE903A1B
:10A05000FDEEC07A1BB217EE902A15B2EBB1DFED20
:10A060002F7A3288F4EEE78AF1EE10FA4CD9DFED60
:10A070002C7AF4EEE78AF1EE10FA47F6FF7158BF3A
:10A080000B4600200021CDE90201B5FA85F149090E
:10A0900000913846022118F0AFF8DDB1DFED1F7AEC
:10A0A0007288B4EEE78AF1EE10FA2FD9DFED1C7A50
:10A0B000B4EEE78AF1EE10FA47F6FF7348BF2B467D
:10A0C00000200021CDE90201012100913846022142
:10A0D00018F092F8B4F93C3013B9B4F94C30BBB174
:10A0E000307AC0034FF47A72002300F2E730002187
:10A0F000FDF756F802460B46204604B0BDEC028B35
:10A10000BDE8F04120F0B0B9064BBAE7054BD7E700
:10A1100004B0BDEC028BBDE8F08100BF000000C7B9
:10A1200000FEFF460080FFFF70B500250646056073
:10A1300000F028FB044678B100F002FE30B900F0D0
:10A14000E9FB012370603370304670BD064B1B780D
:10A15000012BF4D02846F5E700F0F2FD0028EED000
:10A1600023462046EEE700BF9D6D002008B5094B51
:10A170001B7823B1012B06D06FF0850008BDBDE828
:10A18000084023F02ABDFFF7C1FEBDE808400130BA
:10A1900000F09EBCA030002008B5094B1B7823B10D
:10A1A000012B06D06FF0850008BDBDE8084023F004
:10A1B0001CBDFFF7AFFEBDE80840013000F0AEBCAB
:10A1C000A030002037B508490848094D6C462AF0F0
:10A1D00008FE2046FFF7A8FF94E8030085E8030087
:10A1E000002003B030BD00BFF5A10200000F002029
:10A1F000A030002002490348012202F055B800BFF8
:10A200009D6D0020788F050082B00DF1080C0CE9DF
:10A21000030019469DF8003010461BB1012B05D0F4
:10A22000054A00E0054A02B021F014BD019B044A32
:10A2300002B021F00FBD00BF978F05008C8F050085
:10A24000908F050008B5094B1B7823B1012B06D070
:10A250006FF0850008BDBDE8084023F0CEBCFFF7D5
:10A260005DFEBDE80840013000F080BCA030002059
:10A2700030B589B001AD0F4C2846FFF755FF94E883
:10A280000C0095E8030023F00AFB80B923F02EFBB5
:10A2900095E803000A2305AA84E80300FFF7B4FF4A
:10A2A00094E8030003AB83E8030000F023F809B04F
:10A2B00030BD00BFA030002070B50C4615460B49DC
:10A2C00000221E4624F063FC08B9002070BD012C5A
:10A2D00008D1074922463046A8470028F6DDFFF797
:10A2E000C7FFF2E76FF01500F0E700BF828F0500AF
:10A2F0009D6D00207FB56B4683E8030093E8030063
:10A30000002206AB03E90300039202A8034A02926B
:10A3100022F0F8FF07B05DF804FB00BFC46605003B
:10A3200030B585B078BB11B9002005B030BD1848F4
:10A33000184D01682C6841F00103036032B344F00A
:10A340000100994228601BD04FF48073ADF80030B3
:10A350008DF802202AF0D0FE4FF47A72A0FB02039F
:10A3600002FB0131C00B40EA4140C90BCDE90201BB
:10A3700004AB13E90F0005B0BDE8304000F04AB867
:10A380008442E1D1D0E76FF01500CEE79942F8E7BB
:10A39000AC300020B0300020014B196823F003BB23
:10A3A000AC30002007B5084303D0002003B05DF8AF
:10A3B00004FB01A8FFF7BEFA0028F6DD019B1B682D
:10A3C000002BF2D10048F1E7D066050073B50F4BC2
:10A3D00006460C4615461AB10D4A126843F821206C
:10A3E00053F82410002023F0DEFA58B1DDE90623EB
:10A3F0000021CDE9002330462B46224623F0E5FA22
:10A40000002801DD6FF0850002B070BDA83000208B
:10A41000AC30002010B58AB06C4684E80F000023F1
:10A420000593064B049394E80F000AAC04E90F006F
:10A4300004A822F067FF0AB010BD00BFDC6605006B
:10A4400084B030B589B00CAC84E80F0000230193D0
:10A450000CAD084B00930FCD02AC0FC495E8030080
:10A4600084E80300684622F04DFF09B0BDE83040A3
:10A4700004B07047E46605000268034B9A420CBFC3
:10A4800008300020704700BFE46605007FB56B46CA
:10A4900083E8030093E80300002206AB03E903000E
:10A4A000039202A8034A029222F02CFF07B05DF843
:10A4B00004FB00BFE8660500074B1A78074B82B023
:10A4C000162102FB013301938DF8002002AB13E942
:10A4D000030002B0FFF7DABF9E6D00209F6D0020E1
:10A4E00002490348012201F0DFBE00BF9E6D00203B
:10A4F0002B90050008B5002003F0C4FE002802DA06
:10A5000010F1780F07D1044824F03EFB03480449BA
:10A510002AF067FC002008BD0C030020300F00204B
:10A52000E1A4020070B503788AB004460E4607AD78
:10A53000032B20D8DFE803F002191B1D1149284620
:10A54000FCF752FE059563780493A3780393E378B0
:10A5500002932379019363790093A3790A4A1E2118
:10A56000304621F077FB0AB070BD0849E7E708499B
:10A57000E5E70849E3E7084A0A21284621F06AFB93
:10A58000E0E700BF3E90050067900500459005009C
:10A590004C900500569005006090050010B590B0F5
:10A5A000044625F051FE6946FFF7BCFF08A9204686
:10A5B00005F02CFD9DF82130012B14D10B481FF024
:10A5C000E5FE204625F040FE094B19780F221623A0
:10A5D00013FB01230749072219442BF012F810B985
:10A5E00005481FF0D3FE10B010BD00BF28030020A7
:10A5F0009E6D00209F6D0020380300202DE9F04162
:10A600008AB00D4616461F496A4604461F4624F086
:10A61000BEFA08B30098F8B10A2201A921F06EFB36
:10A62000019B1B785BBB162D29D1C4B2042C26D804
:10A63000DFF85C806C432A4608EB04013846B047DB
:10A64000002806DD04F10F0002A94044FFF76AFF6D
:10A6500000200AB0BDE8F0810B496A46204624F08C
:10A6600096FA0028F4D0009B002BF1D1012D06D1E1
:10A6700006492A463846B04700EAE070E9E76FF03D
:10A680001500E6E78A9005002F9005009E6D0020DA
:10A690009F6D0020042808B50DD80F22162313FB48
:10A6A000002306480649072218442AF0AAFFB0FAF8
:10A6B00080F0400908BD0020FCE700BF9F6D00202E
:10A6C000EE920500014B1878FFF7E4BF9E6D002065
:10A6D0002DE9F0410C468EB005464FF0160806A94C
:10A6E000204615FB08F7FFF71DFF0D4E216807F107
:10A6F0000F029319B150A2889A80A2799A710949E0
:10A700002A4601A821F0D2FA4246F11901A801F027
:10A71000CBFD05481FF03AFE0EB0BDE8F08100BF4A
:10A720009F6D0020939005003803002010B5042889
:10A7300088B002D9002008B010BD0F23162414FBE6
:10A7400000340E4B0E491C44072220462AF059FFC4
:10A750000028EFD02146002005F006FC0446002822
:10A76000E8D0694605F052FC204605F0D1F89DF886
:10A770001C00831E58425841DDE700BF9F6D00203A
:10A78000EE920500014B1878FFF7D0BF9E6D0020B8
:10A79000F0B58DB0FFF796FF98B9FFF7F3FF80F0A3
:10A7A00001035B00DBB2214D2A7803EB0213112B6E
:10A7B00009DC022B2DD0102B23D0002420460DB015
:10A7C000F0BD0223EFE7202B1BD0122BF5D104F0B4
:10A7D0000FFC00232B7004460028EFD1144F0FCF3D
:10A7E00002AE0FC63B681349336003220094234630
:10A7F00002A804F0CBFB04460028DFD102232B7013
:10A80000DBE704F0F5FB00232B7004460028D4D0CE
:10A81000D4E7074E0FCE07AC0FC433682360002384
:10A8200004490093032207A8E3E700BF0D6E002050
:10A83000506205004803002030B591B0054625F070
:10A8400003FD69460446FFF76DFE08A9284605F09A
:10A85000DDFB9DF82130012B05D1FFF733FF2146A9
:10A8600018B903F0C5FA11B030BD034B1878FFF7E3
:10A870002FFFFFF78DFFF6E79E6D002030B591B0FA
:10A880000D4608A9044605F0C1FB9DF82130012BB7
:10A890000BD1204625F0D8FC6946FFF743FE0F4B4D
:10A8A00000221A701DB1FFF773FF11B030BDFFF722
:10A8B0006FFF204625F0C8FC094B19780F2216239C
:10A8C00013FB01230749072219442AF09AFE0028A6
:10A8D000EBD105481FF05AFDE7E700BF0D6E0020E1
:10A8E0009E6D00209F6D00203803002008B50648AB
:10A8F00005F0FAFA054805F08DFC054805F0A4FCC2
:10A90000FFF746FF002008BDEC020020D002002027
:10A91000C0020020014B1878704700BF9E6D0020D8
:10A9200010B50A4B0A491A7816240F2314FB023477
:10A93000084B1C44072220462AF063FE28B121461A
:10A940000020BDE8104005F00FBB10BD9E6D00203B
:10A95000EE9205009F6D00201FB5B0240294044CB8
:10A960000194BDF81840009426F012FE04B010BD0A
:10A97000BF90050007B5064B00930649064805231E
:10A980004FF440721FF008FD002003B05DF804FB97
:10A99000EC660500006F0020600F0020F0B5164E39
:10A9A000164F89B000220023694630461FF07EF919
:10A9B000054608B109B0F0BDFFF7B2FF0446002814
:10A9C000F8D01822294602A82AF090FF08230DEBA0
:10A9D000030120460397CDF810D0ADF8143007F0EE
:10A9E00057FB013003D10221204625F0EEFB204623
:10A9F00004F08EFFD6E700BFA80B002058670500C3
:10AA00002DE9F041164FDFF85C808AB001AE0022DC
:10AA10000023314638461FF049F9054610B10AB007
:10AA2000BDE8F081FFF77CFF04460028F7D018222C
:10AA3000294604A82AF05AFF0C2304A92046CDE990
:10AA40000586ADF81C3007F023FB013003D102214D
:10AA5000204625F0BAFB204604F05AFFD7E700BF96
:10AA6000780B0020A86705002DE9F041164FDFF8AC
:10AA70005C808AB001AE00220023314638461FF0C8
:10AA800015F9054610B10AB0BDE8F081FFF748FF9F
:10AA900004460028F7D01822294604A82AF026FFE9
:10AAA000092304A92046CDE90586ADF81C3007F03E
:10AAB000EFFA013003D10221204625F086FB204623
:10AAC00004F026FFD7E700BFD80B0020F867050089
:10AAD00037B5054640F6CD42014600230C481FF02D
:10AAE00087F8044678B110F10B0F09D1002200233A
:10AAF000694607481FF0DAF82846FFF7E9FF0446E1
:10AB0000204603B030BD034903482AF039F9F7E77E
:10AB1000A80B002080030020600F002030B5054600
:10AB200085B040F6CD42014600230D481FF060F885
:10AB3000044678B110F10B0F09D10022002301A9BE
:10AB400007481FF0B3F82846FFF7E8FF0446204601
:10AB500005B030BD034904482AF012F9F7E700BFF9
:10AB6000780B002070030020600F002030B50546F0
:10AB700085B040F6CD42014600230D481FF038F85D
:10AB8000044678B110F10B0F09D10022002301A96E
:10AB900007481FF08BF82846FFF7E8FF04462046D9
:10ABA00005B030BD034904482AF0EAF8F7E700BFD2
:10ABB000D80B002060030020600F00201FB5002389
:10ABC000CDE90233044B8DF80C0001A8019322F06B
:10ABD00099FB05B05DF804FB7468050008B500F04A
:10ABE00021F9BDE8084001492AF0CAB880040020D4
:10ABF00007B5084829F032FE48B14FF4F01200239F
:10AC0000CDE9002304480022002320F087FA03B096
:10AC10005DF804FB685E0500480A002008B5FEF7F1
:10AC200043FF10B96FF0850008BDFEF7EDFD38B1A8
:10AC30000138C0B20128F5D803482AF0A4FA01E08F
:10AC4000FFF7D6FF0020EFE7480A002037B5104C89
:10AC5000A5683021EB6820469847B8B930212B69A8
:10AC60006A462046984788B90A4C00982378834260
:10AC700004D0C0B22070FFF7A1FF38B901F0E6FAA6
:10AC80002378984202D0184601F0E6FA03B030BDAE
:10AC9000685E05000F6E002008B5054829F0DEFD4E
:10ACA00018B1FFF7A5FF002008BD6FF01200FBE709
:10ACB000685E050008B5044800F0E2FF002818BFF0
:10ACC0006FF0150008BD00BF01AD0200014B187800
:10ACD000704700BFCA090020084B1B780B2B4FF0B0
:10ACE00001000AD8984010F4CD6F05D110F4016F1F
:10ACF0000CBF01200020704702207047CA090020C5
:10AD00000A2808B5024613D00A4B0B491870FFF702
:10AD1000E3FF02280AD10B78032A08BF43F001039E
:10AD20000B70BDE8084005481FF030BB0023F7E773
:10AD300008BD00BFCA090020106E0020900400204A
:10AD400008B5FFF7C9FF022806BF034B187800209B
:10AD500000F0010008BD00BF106E002010B50948CA
:10AD6000094C1EF095FD206048B1084B0849B022FF
:10AD700002F0F6FB206824F045F9002010BD6FF0CA
:10AD80001500FBE7AE910500B43000207C6805009B
:10AD9000B491050038B504460D46FFF797FF0B2820
:10ADA0000BD8DFE800F01E1E0A0A1E060A0A0A0A6D
:10ADB0000A1EBDE8384000F041BF4FF47672002310
:10ADC00009481FF009F909482146006800232A466E
:10ADD00024F022F9044610B103481FF0C3F82046BE
:10ADE00038BD6FF01204FAE7200C0020B4300020C8
:10ADF00001481FF0B7B800BF200C002007B5064B74
:10AE00000093064906480A234FF440721FF0C4FA23
:10AE1000002003B05DF804FB9468050080720020F8
:10AE200048100020004870474810002010B5094C19
:10AE30000A44914200D110BD11F8013B584003096A
:10AE40000001E35CC0B2434018091B01205CDBB287
:10AE50005840EEE77C920500014B1B68184700BF85
:10AE6000A004002030B585B004460D461022002114
:10AE700068462AF03BFD02238DF802302A46044B37
:10AE800001932146684621F03BF805B030BD00BF74
:10AE900059AE020080B505460E46174698461FF08B
:10AEA0005FFE03462AF0F2FDDFF81890044649F8E9
:10AEB0000030424630463946A84754F8090001F0B0
:10AEC000E1FD00BF0800000008B50446EFF3118360
:10AED000202383F31288BFF36F8F1AF087FF204679
:10AEE00001F0BEFD024823F064F823F0A6FFFCE762
:10AEF0008C9205002DE9F047058B04462807904603
:10AF000011D4022905F0070540F0CC80204623F03B
:10AF1000FEF878B10138218B042811D8DFE800F061
:10AF2000C2106D85950001290CBF45F0100545F054
:10AF30002005258388F31188BFF36F8FBDE8F08764
:10AF400001F0070AAA4500F0A5800027B9463E4651
:10AF5000A368002B00F0BC8041F00801218388F336
:10AF60001188BFF36F8FA168002900F0BA800D68C7
:10AF7000002900F0B680D1F80480334652462046BE
:10AF8000C047002D76D02B6829461D46F0E701F01A
:10AF900007035A1F012A1BD8002221F00701062BA4
:10AFA000276889B2C4E9002209D13B4603E0628BDD
:10AFB000013262831B68002BF9D141F00201218329
:10AFC000204623F0A4F800287AD041F0200176E052
:10AFD000042B0AD121F0070189B22183204623F0F6
:10AFE00096F810B141F020012183218B01F0070A6E
:10AFF000AA454FD00027B946AAE7236921F00701E7
:10B0000041F00601062DD3F8009021832DD1B9F12E
:10B01000000F3FD041F00801218388F31188BFF36E
:10B020006F8F3A492046C84729E021F0070123697C
:10B0300041F0040189B2042DD3F804902183E6D0B5
:10B0400000273E464FF0040A82E721F007012369FA
:10B0500041F0050189B2052DD3F808902183D6D09F
:10B0600000273E464FF0050A72E700273E464FF0A4
:10B07000060A6DE72B4687E7B9F1000FD1D1EFF350
:10B080001188202383F31288BFF36F8F238B23F063
:10B0900008032383258BEA062ED525F0100323838E
:10B0A00005F007056669218B002EBFF670AF0023FF
:10B0B0002768C4E9003321F0070141F00101218331
:10B0C000218B01F0070AAA454FF000097FF440AF39
:10B0D000002F9CD041F00801218388F31188BFF331
:10B0E0006F8F002FC8D03D68394633465246204600
:10B0F00023F039F82F46F4E7AB067FF51BAF25F0B8
:10B100002003238305F0070500E700BF93E1040057
:10B110002DE9F7430F4606460821C06ADFF8509034
:10B1200023F084F93C68241A80463C6004EA09054F
:10B13000AC4203D8002003B0BDE8F08308236A4680
:10B140002146304623F00AF90028F4D169463046FA
:10B1500023F076F940B1BDF80230BDF804203C6020
:10B1600005EA090513441D44A4EB0804E0E700BF09
:10B170000000FFFF73B504460821C06A124E23F099
:10B1800055F94FF6FF726368ADF800208DF8062080
:10B19000A289191833401344181A002560606846C4
:10B1A000ADF80210ADF8045023F037F96946204697
:10B1B00023F006FA2046211D23F009F9636828468A
:10B1C0003340A36002B070BD0000FFFF2DE9F047DF
:10B1D000044688B000F11407384629F049FCA06AFB
:10B1E0008368DB689847E06228B96FF01505284648
:10B1F00008B0BDE8F087A06A8368DB6898470368F9
:10B20000013B1F2BF1D8A06A216805AA27F031FB6A
:10B210000028EAD1A589002DE7D0069BB5FBF3F203
:10B2200003FB1255002DE0D1E389012BDDD9E36A40
:10B23000009593F805904FF0FF334FF0FF323846FA
:10B240001EF096FDE06A082123F0F0F8A8460646B5
:10B25000E3891FFA85FA534508D8E389434523D18A
:10B2600038461EF0FDFD6FF02C05C0E7A1892B04C8
:10B27000891B13FA81F14A4608232046009123F0E6
:10B280007BF878B16946204623F0A1F808F101085F
:10B29000009908234A4620461FFA88F823F06CF8E4
:10B2A0000028DAD00135D3E753450BD100990823A4
:10B2B0004A46891B204623F05FF818B969462046A4
:10B2C00023F085F869462046FFF722FF054618B1AE
:10B2D00038461EF0C5FD8AE7009B63604FEA1348BD
:10B2E0004FEA0848C4F80880D4E9011399420FD303
:10B2F000082301AA204623F031F805460028E7D1AB
:10B3000001AB13F8012B914533D10135082DF8D14C
:10B3100063681B0C1B0469462046009323F057F812
:10B32000A38900994A46204623F026F8051ECFDB64
:10B33000636876D006EB03084FF6FF79A389CDF852
:10B3400000801FFA88F29B1B9A422ED3002361686B
:10B35000002B43D0090C090400912046694623F0D4
:10B3600036F80099204623F03FF80546002D74D0AA
:10B37000AEE701A9204623F063F8626810B9921B7A
:10B380006260B1E7BDF80850BDF80610E06AC4F885
:10B390000880294423F04AF840449042A060EED14E
:10B3A000002DECD06FF01C0568E0082303AA41468D
:10B3B000204622F0D3FF0546002889D103A9204664
:10B3C00023F03EF830B1BDF80C304B4502D1BDF84A
:10B3D00010300BB1B044B1E70123B8E7204623F0A9
:10B3E00003F8054600287FF473AF6368264AA189F5
:10B3F00013400B44A3EB460363601340A360204655
:10B4000023F006F9B1E75B1A4A46204622F0B4FF62
:10B41000051EFFF65DAF08D0E26AA3681268134408
:10B42000A360D4E901318B42EDD86168A38901EBB7
:10B4300046029A429AD1DFF85080A26801EA0803D6
:10B440009A4293D0204622F0CFFF054600287FF491
:10B450003FAF636803EA0803A360A389A288A3EB54
:10B4600046039A4206D038461EF0FAFC01232374A4
:10B470000025BCE6204623F0B4F8054638461EF009
:10B48000EFFC002DF2D0B2E60000FFFF014B03609D
:10B49000002070479C68050070B5104B1C680D4675
:10B4A000B4B10F4B196800238B4202DB6FF001002F
:10B4B00070BD224612F8106B864202D0013314464A
:10B4C000F2E7E06829F0CAF928B12C600020EFE724
:10B4D0006FF00C00ECE76FF01200E9E7A404002025
:10B4E0009C68050010B588B0436802938368C06803
:10B4F000CDE903320A680023CDE906230C4601AAF0
:10B500000449059327F0B9F9079808B9059B23600A
:10B5100008B010BD1FEA0400F0B40C4B0C4E5F6A7B
:10B520000C4BB34203D36FF08500F0BC70475D68ED
:10B53000BD4209D31C693CB195F802C00579AC4500
:10B5400002D12346F0BC18472433EAE7B830002084
:10B55000500E00202C0E00202DE9F047134CDFF890
:10B560005080DFF8509005460E461746444503D3F9
:10B570006FF08500BDE8F0876268D9F824309A4200
:10B5800012D3A36983B190782979884205D13A46CC
:10B5900031462846BDE8F04718475279012A03D1C1
:10B5A0003A463146284698472434DFE72C0E0020DF
:10B5B000500E0020B83000202DE9F0410B4CDFF890
:10B5C000308005460E461746444502D36FF085008D
:10B5D00009E063690BB92434F6E73A463146284658
:10B5E00098470028F7D1BDE8F08100BF2C0E00205D
:10B5F000500E002010B5044627F018F810F1780F0F
:10B6000000D050B9054A204623F044FAD2F8C4309D
:10B6100023EA0003C2F8C430002010BDB830002077
:10B62000024B00221A605A60704700BF733100203D
:10B6300070B50B4B0B4CA34201D3002070BD196AAF
:10B640001E7F00220439D5B2AE4201D82433F2E77E
:10B65000013211F832508542F5D10120EEE700BFEA
:10B660002C0E0020500E002008B509480378C3F3C3
:10B6700041130A3350F823303BB100F1080200F1C6
:10B6800010019847C043C00F08BD1846FCE700BF33
:10B69000B830002004282DE9F14FDFF8A0900446CF
:10B6A0000F4616D001282DD1DFF88C8098F8B930DC
:10B6B00043B300F06DFD1F4D4D4520D2D5F820B0AD
:10B6C0004FF0000A2B7F5FFA8AF6B34204D8243584
:10B6D000F2E7FFF7A5FFE7E70BEBC6060AF1010A61
:10B6E000307926F0A3FF0246307923F0D3F9D8F859
:10B6F000C430002A23EA0003C8F8C430E2DA002389
:10B7000088F8B9300B4D4D4508D30B4B1B6A6BB114
:10B710003946204601B0BDE8F04F1847EB681BB131
:10B720003A462146284698472435ECE701B0BDE863
:10B73000F08F00BF2C0E0020B8300020500E0020EB
:10B7400073B5C4B263060D468DF8074007D0204696
:10B75000FFF76EFF78B10D4B93F8BA0058B10B4E5E
:10B76000204655B117F072F9F3691BB10DF10701CD
:10B7700008209847012002B070BD17F08FF9F369D7
:10B78000002BF7D00DF107010920F2E7B8300020B7
:10B7900073B586788DF80060037942791C4C43EAD2
:10B7A0000223ADF80230C378304603F003038DF86E
:10B7B000043023F06FF9D4F8C430184205460BD09A
:10B7C000304600F0C7FC3046FFF714FF29F065FB58
:10B7D00010B996201FF082F9684617F013F910F19E
:10B7E000780F03D010B1002002B070BD9DF80000AA
:10B7F00017F090F910F1780F01D00028F3D1D4F8A8
:10B80000C43001202B4384F8B900C4F8C430EBE7FE
:10B81000B83000202DE9F047A34EB36904460F4627
:10B820001546FBB9237803F01F03012B00F09D8020
:10B83000022B00F0048133BB94F900002A68617880
:10B84000002834DA062912D008292BD0D9B90123CF
:10B850001370517096F8C3305B0043F0010313700E
:10B8600002232AE198470028DCD100200DE06288FD
:10B87000100A011F0129844605D9072803D8716AD7
:10B88000D2B20C781CB96FF01500BDE8F0874E7885
:10B89000664503D19A4200F00B8101332144F0E761
:10B8A0000B780AE196F8BA301370012305E10139EB
:10B8B0000829E8D801A353F821F000BF55B90200C8
:10B8C00087B8020063B9020087B80200E1B802003D
:10B8D00087B8020087B8020087B80200EDB80200FE
:10B8E000A07817F07DF80028BFD0CCE76388756A90
:10B8F00063BBFFF795FE638886F8BA30F369002BC7
:10B90000B3D06A4903209847AFE76B78042B10D077
:10B91000052B11D0022B04D16F796388BB4208BF7D
:10B9200001202B781D442B78002BEED10028AAD0C3
:10B93000DFE795F80380F4E76388BB42F1D1B8F103
:10B94000000FEED12846FFF723FFEAE7FF2700208C
:10B95000B846E8E76388012B95D1002386F8C33009
:10B9600083E76388012B8ED1F8E796F8BA30D5F8D3
:10B9700000C0002B87D0756AA38894F804E02A469B
:10B98000107800283FF47FAF5178022904D192F853
:10B990000480F04500F293800244F1E78CF8002027
:10B9A0008CF80120396060E7154494E00B2A7FF49D
:10B9B0006AAF00274FF0FF08C146BA4606E06B7831
:10B9C000042B0FD0052B21D02B781D442B78002B76
:10B9D000F5D1F36913B1514607209847002F7FF442
:10B9E00044AF50E795F80280A38895F803909845F6
:10B9F000EAD163889945E7D1B8F1070F1CD806EB67
:10BA00000803AA4683F8BB900127DDE7A3884345D6
:10BA1000DAD1A3784B450AD0AF78384600F09AFBCC
:10BA20003846FFF7E7FDB0FA80F77F09CCE72846F4
:10BA3000FFF7AEFE0746C7E7AA460027C4E794F91A
:10BA400000206378002A18DA002B7FF41CAF2479D9
:10BA50002D6863060AD02046FFF7EAFD00283FF470
:10BA600012AF96F8BA30002B3FF40DAF29462046AE
:10BA700017F034F800236B70F2E6012B08D0032B8B
:10BA80007FF401AF6388002B7FF4FDAE012103E05A
:10BA9000618800297FF4F7AEA088FFF751FE0028E7
:10BAA0007FF4E3AEEFE600BFB83000207231002033
:10BAB000022829607FF4F4AE4B883B60D5E694F908
:10BAC000000062780028BFF671AF002A3FF466AF2D
:10BAD0000A2A7FF4D8AE2A78002A3FF4D4AE6978D7
:10BAE00004297FF461AFA9788B427FF45DAF072B07
:10BAF00096BF9B19002393F8BB308CF80030D4E636
:10BB000013B5164C237DF3B9E268A168019201AB2D
:10BB1000802022F0CDFF019AA3681344A360E3685C
:10BB20009B1AE3606BB962B12369E2889A4208DD2F
:10BB300094F8C82093FBF2F102FB11330BB90123F7
:10BB4000237502B010BD00231A46194680202375C4
:10BB500002B0BDE8104017F007B800BFB8300020B1
:10BB600030B585B0002302460D460193002858D118
:10BB7000002935D108220B460DEB020126F06FFD9E
:10BB8000002804DA802016F061FF05B030BD2A4C91
:10BB9000029A2260039A626004F13802A2609DF961
:10BBA0000820BDF80E302575002AC4E903550ADBCC
:10BBB000802B04D9802016F049FF0020E3E713B161
:10BBC000C4E90333E1E7FFF74FFD0028DAD0E2884C
:10BBD00023699A42D4BFE260E360FFF791FFD4E7A4
:10BBE000154CD4E90215002D01AB04DC26F037FD1D
:10BBF0000028CADAC6E72A4626F031FD0028D9DB3C
:10BC0000019AA3681344A360E3689B1AE360002BC6
:10BC1000BBD104F13803A360FFF726FD0028DCD177
:10BC2000B0E78028B1D1044BDA68002AD5D11B7D5A
:10BC3000002BD2D1A9E700BFB8300020044B93F805
:10BC4000C3300BB126F01ABD6FF00C00704700BF77
:10BC5000B8300020054B064A9A62064ADA62064A64
:10BC60001A63064A58629A6100207047B830002073
:10BC700015B8020019B50200B9B5020059B50200A5
:10BC80002DE9F3410446474D47484FF0FF334FF04D
:10BC9000FF321EF06DF895F8B830002B7BD16B6A3F
:10BCA00083B142482C62E8616E6A17F077F816F0AB
:10BCB00065FE041E10DA3C481EF0D2F8204602B0A1
:10BCC000BDE8F08100F0BEF8FFF7C4FF6B6A002BFF
:10BCD000E7D14FF0FF34EEE700F07CFA041EEADB18
:10BCE0007378012B5AD1F379002B57D00026684680
:10BCF00085F8C830ADF802308DF804608DF800602A
:10BD000016F080FE041ED6DB802768468DF8007092
:10BD100016F078FE041ECEDB2549304617F02AF8CF
:10BD2000041EC8DB2249384617F024F8041EC2DB83
:10BD3000204CDFF8848044451AD3002016F0EAFE38
:10BD4000041EB8DBD5F8C430802043F00103C5F8E9
:10BD5000C43016F0DFFE041EADDBD5F8C43043F46A
:10BD60008033C5F8C430012385F8B8300024A2E739
:10BD7000276A0026227FF3B29A4201D82434DAE7F8
:10BD800007EBC30257F83310107916F0F3FF0136B2
:10BD90000028EFD09DE76FF077048CE76FF0150473
:10BDA00089E700BFB8300020040B002095B60200E0
:10BDB00061BB02002C0E0020500E002030B51F4B3E
:10BDC0008BB005AA03F1100518685968144603C41E
:10BDD0000833AB422246F7D11B7823701022002192
:10BDE00001A829F083FD12220021154829F07EFDCB
:10BDF000102101A826F090FE00281BDD0828B8BFFE
:10BE00000820093801AB0E491A18002012F8013F2A
:10BE10000AAC04EB131403F00F0328336B44013016
:10BE200014F8144C13F8143C0C7008284B7001F1F2
:10BE30000201EBD102480BB030BD00BFB592050046
:10BE4000126E00202DE9F04F724B93F800B087B0CE
:10BE5000BBF1000F03D0704807B0BDE8F08F6E4C07
:10BE600000264FF0011AB0463546B14623783BB95B
:10BE70006A4B02349C42F3D1664A01231370EAE70D
:10BE80006378052B1BD8DFE803F08E03C38E1D39C2
:10BE9000402304A88DF810B0ADF812308DF814B01E
:10BEA00026F0AFFB40B1082304A8ADF8123026F00D
:10BEB000A8FB08B1ADF812B0BDF81230E3712378D9
:10BEC0001C44D3E7E378002BF9D1A3786BB108F1D8
:10BED00001085FFA88F8F2E76B689C4207D02435C6
:10BEE0004F4B9D42F8D30020B6E74E4DF8E7AB68C4
:10BEF000002BECD0414620469847E8E7002DF2D0D1
:10BF000000222B7F9A42EED2296AA07801EBC2016F
:10BF10000B79984201D00132F3E70127E07800F075
:10BF200003008DF81400207994F805C040EA0C2035
:10BF3000ADF8120094F902000028FBB228DA07F1EC
:10BF400010004FF0010C0CFA00F010EA0A0F26D195
:10BF500043F080008DF8100004A8CDE9021301928F
:10BF600026F04FFBDDE90121039BC0B99DF81020AD
:10BF7000A27012F0800F18BF10330A7118BFDBB225
:10BF80004FF0010214BF9A40BA404AEA020A96E70B
:10BF90000120B84010EA0A0F01D11846DAE701374C
:10BFA000102FBBD1B7E7032E1AD1FFF707FF0746C3
:10BFB00050B1FBF721F9024630B11028A8BF10227A
:10BFC0003946A01C29F06AFC23786FF00201E218C0
:10BFD000091B04EB5303D14213D50136F6B26EE7C9
:10BFE000002EF1D1B9F1000F3FF47DAFA4EB0903AE
:10BFF00089F80230C3F3072389F8033089F80480F5
:10C00000EBE702F801BC13F8010902F8020DE2E7C0
:10C01000A14654E7116E0020B40D00202A0E002026
:10C02000500E00202C0E002010B5094B00211A469E
:10C030001C78844205D15C681CB1482303FB0120B5
:10C0400010BD0131042903F14803F1D10020F7E7C5
:10C05000843100202DE9F34150F8303C10F8346C65
:10C06000103304460AD1036950F8282C980736D5B6
:10C07000D2B9590715D5002344F8303C54F8303C68
:10C0800010330BD054E9097554F81C8C28F005FFC7
:10C0900000284FD02E48214628F072FE02B0BDE89D
:10C0A000F08143F00403236154F82C1C01AB3046AB
:10C0B00022F0FEFC10B16FF01503DDE7019A54F891
:10C0C0002C3C134444F82C3C54F8283C9B1A44F86C
:10C0D000283C54F8243C134444F8243CCEE754F85C
:10C0E0002C1C01AB304616F0BBFD0028E3D1019DAE
:10C0F00054F82C3C2B4444F82C3C54F8283C5B1B53
:10C1000044F8283C54F8243C2B4444F8243C002DAB
:10C11000B1D0304616F048FEB5FBF0F303FB1055E6
:10C12000002DA8D154F8283C002BA4D0304616F09E
:10C13000DFFDA3E744F8200CA4F118001DF012FF66
:10C14000002DABD0424639463046A847A6E700BF8F
:10C15000202E002010B5EFF31184202383F31288E2
:10C16000BFF36F8FFFF760FF50B14368103307D103
:10C170006FF08B03436000F13401044828F000FEA7
:10C1800084F31188BFF36F8F10BD00BF202E0020F5
:10C19000F8B50E4C04252027EFF3118687F312889B
:10C1A000BFF36F8F6368103307D16FF08B030848BC
:10C1B000636004F1340128F0E3FD86F31188BFF3D6
:10C1C0006F8F013D04F14804E6D1F8BD84310020B1
:10C1D000202E002070B50A4C0A4E0025314620461C
:10C1E00028F0B2FD0122A4F118001146013528F013
:10C1F00028FD042D04F14804F0D1002070BD00BFDB
:10C20000B831002055C002001FB507240294044C29
:10C210000194BDF81840009425F0BAF904B010BD9F
:10C22000CB09002010B5084C86B024788DF8174053
:10C23000012402940DF117040194BDF820400094EC
:10C2400025F0A6F906B010BDD2090020014B1878E0
:10C25000704700BFD209002000B589B064288DF86E
:10C26000070019D80E4B18221870002102A829F0D7
:10C270003DFB0C4B03930DF10703049302A901232B
:10C280000020ADF8143005F003FF10F1800F08BF57
:10C29000002009B05DF804FB6FF01500F9E700BF5E
:10C2A000D2090020806905002DE9F0410F4B1C6880
:10C2B00005460E461746ACB14FF0FF324FF0FF3344
:10C2C0000B481DF055FD63683246D3F808802946B7
:10C2D0003B462046C047044605481DF0C1FD2046A8
:10C2E000BDE8F0816FF00104F9E700BFA43200203F
:10C2F000F00A002000230360044B5A6812B9C3E916
:10C300000000704710605860704700BFA8320020DE
:10C31000014B1860704700BFA432002030B585B0D3
:10C3200000230546CDE9023301904FF0FF330C485E
:10C330004FF0FF321DF01CFD0A4B1C684CB928461B
:10C3400000F0D0F8044606481DF08AFD204605B0EE
:10C3500030BD636820461B6801A998472468EDE753
:10C36000F00A0020A83200201FB5CDE90101039298
:10C370004FF0FF330A484FF0FF321DF0F9FC094B34
:10C380001C682CB906481DF06BFD204604B010BD9A
:10C39000636820461B6801A998472468F1E700BF3D
:10C3A000F00A0020A8320020024B0022C3E900223C
:10C3B000704700BFA8320020024B0022C3E90022D0
:10C3C000FFF7F2BFB0320020F8B51C4C1C4E0546FA
:10C3D0000F46B44212D31B4E1B484FF0FF324FF0B2
:10C3E000FF331DF0C5FC34687CB1286854F8181C74
:10C3F000183CFAF7EFFED0B1A469F5E72168286888
:10C40000FAF7E8FEB0B11834E3E700226F60AA61E2
:10C41000726805F118033AB9C6E9003300240A48E6
:10C420001DF01EFD2046F8BD13607360F6E76FF047
:10C430001004F4E76FF01004F4E700BF4861050052
:10C4400008620500B0320020F00A00202DE9F74311
:10C4500007460C4609B100230B601F4DDFF88090A2
:10C4600000264D450FD31D4B1D6885B355F8188C1C
:10C4700001AA41463846183D22F089FB10B3D6B9CF
:10C4800014BB2E461EE0D5F8008001AA414638466E
:10C4900022F07DFB50B116B954B92E4606E0316842
:10C4A0000022404622F073FB0028F5D11835D8E76A
:10C4B000019B2360F1E731680022404622F067FBD0
:10C4C0000028DDD1AD69D0E7019B2360D9E7304674
:10C4D00003B0BDE8F08300BF48610500B032002022
:10C4E000086205002DE9F047DFF8B090DFF8B0A052
:10C4F00080464FF000470026274C3D464C450DD363
:10C50000DAF80040002C42D0183CB8F1000F25D1D9
:10C5100022695ABBA469F5E72F46EDE7B8F1000F91
:10C5200003D122694AB91834E8E72068002241465D
:10C5300022F02DFB0028F4D1F5E76368BB4205DD4E
:10C54000AF4209D09D42A8BF1D46ECE7EBD1904712
:10C55000002E08BF0646E6E71D46E4E720680022F5
:10C56000414622F014FB0028D2D1D3E76368BB42D6
:10C5700005DDBD4209D09D42A8BF1D46CAE7C9D10D
:10C580009047002E08BF0646C4E71D46C2E7AF42EB
:10C59000C2D13046BDE8F087486105000862050059
:10C5A000B032002038B50C4D0C484FF0FF334FF03F
:10C5B000FF321DF0DDFB2B783BB9FFF7FDFE00F0ED
:10C5C0006DF8044610B901232B70002403481DF0B8
:10C5D00047FC204638BD00BF246E0020F00A002032
:10C5E0002DE9F047048FDFF8B0A0013498B006467B
:10C5F0008946A4B200F10807651EADB2B5F5004F3B
:10C6000047D04A2305AA2946384622F000FA04F505
:10C610007F543F34A4B28046214601230DF10B0222
:10C62000384622F0F4F9B8F1000F014610DC00287A
:10C6300010DC338FAB4209D132466B1E22F8383FF3
:10C640004FF400410223384622F0AFF82C46D3E7DE
:10C65000002808DC2946384622F075F9214638467C
:10C6600022F071F9E5E708F160030DEB0308002300
:10C6700008F84C3C5246CDF8009003AB05A8039750
:10C68000ADF8104022F0B9FA0028DFD018B0BDE8AC
:10C69000F0870020FAE700BF69EC04007FB50123B2
:10C6A000694602200193FEF7F7FE044660BB02AA2A
:10C6B00001A9022022F0D5F9044610B110F10C0FA7
:10C6C00022D10399B1F5803F23D2009A00239468C8
:10C6D0001846084484421AD30133082BF9D10E4D71
:10C6E000A982EB825368AB602846D368EB6322F0E3
:10C6F00053FB044640B9094E6E602846FFF7FAFD29
:10C7000028466E60FFF704FE204604B070BD9BB261
:10C71000E5E76FF02004F7E7B832002008050020B5
:10C7200030BFFFF7FDBF00BF2DE9F0410B4EDFF832
:10C73000348006EB0807CC1B0546324608492046E4
:10C7400029F0ACF8A01942460021083C29F0CEF8A7
:10C750006C6707F10800BDE8F08100BF0000000031
:10C760004462050008000000054B9A699B689A42E4
:10C770001FBF044A536843F080535360704700BFA3
:10C78000B46C002000ED00E070B5264B15469A6AA7
:10C7900012F0100F9A6A14BF1124102412F0080F1F
:10C7A0009A6A18BF1224920706460AD5586B9A6AED
:10C7B000140634D519B19A6A22F080029A621324C1
:10C7C00001E06FF01500174B9A6A12F0010F9A6A98
:10C7D00018BF142412F0200F9A6A18BF1524D2062D
:10C7E00002D49B6A9B070AD50E4B5B68190506D5D8
:10C7F000314600F07DFA10B180F309880224094B1C
:10C800009A6A920642BF5A6A22F400525A629A6A9F
:10C8100042F0FF029A6200232B70204670BD6FF039
:10C820001500CCE700ED00E0134B9A6A12F0007F90
:10C830009A6A14BF1E201D2012F0807F9A6A18BFCA
:10C840001F2012F4002F9A6A18BF212012F4802FA3
:10C850009A6A18BF222012F4003F9A6A18BF232058
:10C8600012F4803F9A6A6FEA02426FEA12429A62B9
:10C8700018BF2420704700BF00ED00E010B5194B31
:10C880000246986A9C6A10F4805F14BF1720162035
:10C8900014F4006F9C6A18BF1820A40509D5986B82
:10C8A000986A000404D51AB19A6A22F400429A6286
:10C8B00019200C4B9A6A12F4806F9A6A18BF1A20DA
:10C8C000D2050CD49B6A13F4005F18BF1C20054AE4
:10C8D000936A43F47F43936200230B7010BD1B20C7
:10C8E000F5E700BF00ED00E070B5454B5B689CB01C
:10C8F0000546C3F30803002686F31188BFF36F8F44
:10C9000002F07F40B0F17F4F11D102F00C000828F7
:10C910000DD010074CBF0D4601260022033B8DF8B9
:10C920000720032B05D8DFE803F01E5D615A35466A
:10C93000F3E700249DF807309BB96822294602A836
:10C9400028F0ACFF099B002E54D0C3F3080222B993
:10C950006FEA53236FEA4323099302A9204622F08A
:10C9600050FA1CB070BD264BDA6A9107E1D4DA6A3E
:10C97000002ADEDBDA6A5200DBD55A69A96942F483
:10C9800080725A61BFF34F8FBFF36F8F5A6931F8CE
:10C99000021C22F480725A61BFF34F8FBFF36F8F76
:10C9A0004DF6027291420AD09A6AD2B24AB10DF1A2
:10C9B000070201212846FFF7E7FE0446BAE72C6884
:10C9C000B8E79A6A12F47F4F05D00DF107010120F4
:10C9D000FFF754FFF1E79B6AB3F5803FA9D3FFF758
:10C9E00023FFEAE70DF107020021E3E70DF107015C
:10C9F0000020EDE723F4FF7323F00103ACE700BF51
:10CA000000ED00E0044B5A6942F010025A615A6985
:10CA100022F008025A61704700ED00E0EFF3088051
:10CA2000EFF3098101B57246FFF75EFF01BD00BF5C
:10CA300019F074FB202080F3118808484FF4086136
:10CA4000401880F30988EFF314800221084380F333
:10CA50001488BFF36F8F00F0D3F80000009500201A
:10CA6000BFF34F8F0549064BCA6802F4E0621343D7
:10CA7000CB60BFF34F8F00BFFDE700BF00ED00E0CC
:10CA80000400FA05084B9B6883420BD1EFF3058342
:10CA900043B1064B5A6842F080525A605A6A22F4F7
:10CAA00000425A621EF062B8B46C002000ED00E053
:10CAB00023498A6882F8C1E04FF030001044EFF358
:10CAC000098C80E8F01F1EF0100F03D102F18000E6
:10CAD00080EC108A202080F31288BFF36F8F194FEB
